:020000040000fa
:080000000002040000000000f2
:020000040000fa
:04000800ce03000023
:020000040000fa
:04000c00ce0300001f
:020000040000fa
:04001000ce0300001b
:020000040000fa
:04001400ce03000017
:020000040000fa
:04001800ce03000013
:020000040000fa
:04001c00ce0300000f
:020000040000fa
:04002000ce0300000b
:020000040000fa
:04002400ce03000007
:020000040000fa
:04002800ce03000003
:020000040000fa
:04002c00ce030000ff
:020000040000fa
:04003000ce030000fb
:020000040000fa
:040034009a0300002b
:020000040000fa
:04003800ce030000f3
:020000040000fa
:04003c00ce030000ef
:020000040000fa
:04004000ce030000eb
:020000040000fa
:04004400ce030000e7
:020000040000fa
:04004800ce030000e3
:020000040000fa
:04004c00ce030000df
:020000040000fa
:04005000ce030000db
:020000040000fa
:04005400fa020000ac
:020000040000fa
:04005800ce030000d3
:020000040000fa
:04005c00ce030000cf
:020000040000fa
:04006000ce030000cb
:020000040000fa
:04006400ce030000c7
:020000040000fa
:04006800ce030000c3
:020000040000fa
:04006c00ce030000bf
:020000040000fa
:04007000ce030000bb
:020000040000fa
:04007400ce030000b7
:020000040000fa
:04007800ce030000b3
:020000040000fa
:04007c00ce030000af
:020000040000fa
:04008000ce030000ab
:020000040000fa
:04008400ce030000a7
:020000040000fa
:04008800ce030000a3
:020000040000fa
:04008c00ce0300009f
:020000040000fa
:04009000ce0300009b
:020000040000fa
:04009400ce03000097
:020000040000fa
:04009800ce03000093
:020000040000fa
:04009c00ce0300008f
:020000040000fa
:0400a000ce0300008b
:020000040000fa
:0400a400ce03000087
:020000040000fa
:0400a800ce03000083
:020000040000fa
:0400ac00ce0300007f
:020000040000fa
:0400b000ce0300007b
:020000040000fa
:0400b400ce03000077
:020000040000fa
:0400b800ce03000073
:020000040000fa
:0400bc00ce0300006f
:020000040000fa
:0400c000ce0300006b
:020000040000fa
:0400c400ce03000067
:020000040000fa
:0400c800ce03000063
:020000040000fa
:0400cc00ce0300005f
:020000040000fa
:0400d000ce0300005b
:020000040000fa
:0400d400ce03000057
:020000040000fa
:0400d800ce03000053
:020000040000fa
:0400dc00ce0300004f
:020000040000fa
:0400e000ce0300004b
:020000040000fa
:0400e400ce03000047
:020000040000fa
:0400e800ce03000043
:020000040000fa
:0400ec00ce0300003f
:020000040000fa
:0400f000ce0300003b
:020000040000fa
:0400f400ce03000037
:020000040000fa
:0400f800ce03000033
:020000040000fa
:0400fc00ce0300002f
:020000040000fa
:04010000ce0300002a
:020000040000fa
:04010400ce03000026
:020000040000fa
:04010800ce03000022
:020000040000fa
:04010c00ce0300001e
:020000040000fa
:04011000ce0300001a
:020000040000fa
:04011400ce03000016
:020000040000fa
:04011800ce03000012
:020000040000fa
:04011c00ce0300000e
:020000040000fa
:04012000ce0300000a
:020000040000fa
:04012400ce03000006
:020000040000fa
:04012800ce03000002
:020000040000fa
:04012c00ce030000fe
:020000040000fa
:04013000ce030000fa
:020000040000fa
:04013400ce030000f6
:020000040000fa
:04013800ce030000f2
:020000040000fa
:04013c00ce030000ee
:020000040000fa
:04014000ce030000ea
:020000040000fa
:04014400ce030000e6
:020000040000fa
:04014800ce030000e2
:020000040000fa
:04014c00ce030000de
:020000040000fa
:04015000ce030000da
:020000040000fa
:04015400ce030000d6
:020000040000fa
:04015800ce030000d2
:020000040000fa
:04015c00ce030000ce
:020000040000fa
:04016000ce030000ca
:020000040000fa
:04016400ce030000c6
:020000040000fa
:04016800ce030000c2
:020000040000fa
:04016c00ce030000be
:020000040000fa
:04017000ce030000ba
:020000040000fa
:04017400ce030000b6
:020000040000fa
:04017800ce030000b2
:020000040000fa
:04017c00ce030000ae
:020000040000fa
:04018000ce030000aa
:020000040000fa
:04018400ce030000a6
:020000040000fa
:04018800ce030000a2
:020000040000fa
:04018c00ce0300009e
:020000040000fa
:04019000ce0300009a
:020000040000fa
:04019400ce03000096
:020000040000fa
:04019800ce03000092
:020000040000fa
:04019c00ce0300008e
:020000040000fa
:0401a000ce0300008a
:020000040000fa
:0401a400ce03000086
:020000040000fa
:0401a800ce03000082
:020000040000fa
:0401ac00ce0300007e
:020000040000fa
:0401b000ce0300007a
:020000040000fa
:0401b400ce03000076
:020000040000fa
:0401b800ce03000072
:020000040000fa
:0401bc00ce0300006e
:020000040000fa
:0401c000ce0300006a
:020000040000fa
:0401c400ce03000066
:020000040000fa
:0401c800ce03000062
:020000040000fa
:0401cc00ce0300005e
:020000040000fa
:0401d000ce0300005a
:020000040000fa
:0401d400ce03000056
:020000040000fa
:0401d800ce03000052
:020000040000fa
:0401dc00ce0300004e
:020000040000fa
:0401e000ce0300004a
:020000040000fa
:0401e400ce03000046
:020000040000fa
:0401e800ce03000042
:020000040000fa
:0401ec00ce0300003e
:020000040000fa
:0401f000ce0300003a
:020000040000fa
:0401f400ce03000036
:020000040000fa
:0401f800ce03000032
:020000040000fa
:0401fc00ce0300002e
:020000040000fa
:04020000ce03000029
:020000040000fa
:04020400ce03000025
:020000040000fa
:04020800ce03000021
:020000040000fa
:04020c00ce0300001d
:020000040000fa
:04021000ce03000019
:020000040000fa
:04021400ce03000015
:020000040000fa
:04021800ce03000011
:020000040000fa
:04021c00ce0300000d
:020000040000fa
:04022000ce03000009
:020000040000fa
:04022400ce03000005
:020000040000fa
:04022800ce03000001
:020000040000fa
:04022c00ce030000fd
:020000040000fa
:04023000ce030000f9
:020000040000fa
:04023400ce030000f5
:020000040000fa
:04023800ce030000f1
:020000040000fa
:04023c00ce030000ed
:020000040000fa
:04024000ce030000e9
:020000040000fa
:04024400ce030000e5
:020000040000fa
:04024800ce030000e1
:020000040000fa
:04024c00ce030000dd
:020000040000fa
:04025000ce030000d9
:020000040000fa
:04025400ce030000d5
:020000040000fa
:04025800ce030000d1
:020000040000fa
:04025c00ce030000cd
:020000040000fa
:04026000ce030000c9
:020000040000fa
:04026400ce030000c5
:020000040000fa
:04026800ce030000c1
:020000040000fa
:04026c00ce030000bd
:020000040000fa
:04027000ce030000b9
:020000040000fa
:04027400ce030000b5
:020000040000fa
:04027800ce030000b1
:020000040000fa
:04027c00ce030000ad
:020000040000fa
:04028000ce030000a9
:020000040000fa
:100400000f9f21000eff21000e0188000000000058
:10041000000020000000e000020032000001200087
:1004200020028800140007003f0107000000e000e0
:1004300003003a00404b2100010020000200370079
:100440000000200001002000810f70000100320038
:100450000f000700000020000000e0000200320052
:10046000000002000000000004070200000000007d
:100470000040da000000fe00801a20000000e000ca
:1004800002003200002020009001880000000600d9
:10049000a1028800800478000000eb001f003700f4
:1004a000e284440054a0b4009905ba00e2844400f8
:1004b00054a0b4009906ba00e284440054a0b400e9
:1004c0000006eb00476fde00fd07b200ae018800ba
:1004d000636ce10003003a000ad801000000eb0061
:1004e0000e003700606ce10008003a00004deb00a0
:1004f0000a05e800020039003420ec000af0a000f0
:100500008b05e900f9ff3e00040037006168e10057
:10051000010032000086eb000b00070019c7ba008b
:100520000e04e0001905ba0003003a000a00e000da
:10053000dbff3a0000000600fe07b200ae028800b2
:100540008a047800f5ff37000cd0a300e20f4d00bd
:100550001c00390089027800354dba000a05e80010
:10056000020039003420ec000af0a0008b05e900fd
:100570000f003200254dba000a05e80002003900dc
:100580003420ec000af0a0008b05e90008003200de
:100590000c00e0000600320015cdba000a05e800a4
:1005a000020039003420ec000af0a0008b05e900bd
:1005b0008984e80054a0b4000b00e000e2ff3a0098
:1005c000000006009902ba00055d78008b05e9007d
:1005d000f7ff3200c82ade00055d78008b05e900d0
:1005e000f3ff32000c00e000f1ff320019ddba0029
:1005f000eeff37003600f800809fbe00829fbe00ed
:10060000849fbe00869fbe00889fbe003200f80017
:100610003400f80010002000a00188000020200015
:1006200000d0fe000000fa0005e1a9000021ef0063
:100630000060fe0010118000610060000000e0001a
:100640003000320005e1a8002a00370010118000b8
:10065000680060000000e0000e003a001011800009
:10066000640060000000e0000a003a001863210006
:10067000184478008884fb009b00070080407800c5
:100680001053210000804400014878000840e80031
:1006900031f6b70010118000620060000000e00039
:1006a000040032008a0007002f74ef0005e1a90062
:1006b000c103070010118000640060000000e0002a
:1006c00004003200820007002f74ef0005e1a9004a
:1006d000b903070010118000680060000000e0000e
:1006e000040032007a0007002f74ef0005e1a90032
:1006f000b103070010118000610060000000e000fd
:10070000d2ff3a000168a90005e1a8000080fa00c4
:100710003400f9003200f9004f04be004f03be0060
:100720004f02be004f01be004f00be003600f90070
:10073000004006003600f800809fbe00829fbe0089
:10074000849fbe00869fbe003200f8003400f8008f
:1007500010002000a00188000020200000d0fe0032
:100760000000fa0005e1a9000060fe00b5040700e2
:100770000021ef000068a9000080fa003400f900b1
:100780003200f9004f03be004f02be004f01be0011
:100790004f00be003600f900004006000040da00bd
:1007a0000000fe000602ab00feff3a000642ab006e
:1007b000fcff3a000662ab00faff3a000622ab00eb
:1007c000f8ff3a000682ab00f6ff3a0009c2ab0020
:1007d000f4ff3a00000006008040780000c0eb0003
:1007e0008180fb001110880008e2ab0007003a008e
:1007f00009c2ab00feff3a00eaff07000040eb0031
:100800000802e20001003d00e0cfb3000000060056
:100810002110880030108800000006000602a800a1
:10082000000006000642a800000006000748a900d4
:10083000e7006000f28f2f00c808dd00e34280006f
:100840000301610068006000028170004300de0067
:10085000e242880061006000f1bf2f004a00dd0025
:100860003241800082806000810070003141880048
:1008700000000600000e8800110e8800220e88007d
:1008800000000600300e8000510e800000000600bf
:100890000080eb006002ab000700320060c2a900dc
:1008a0006342ab00020032004013800000000600eb
:1008b00040138000f00fb20000000600001020007e
:1008c0002202b6000000e9004f00de000000060032
:1008d00021e2a9002168a9002188a9000168a900d6
:1008e0000188a90000000600001180006600600079
:1008f000e60f500002003a003011800000000600b0
:1009000030118000f00fb2000000060001118000dd
:10091000e6806000e68f500001003200f00fb20068
:0c09200020118800000006000000050007
:020000040000fa
:10092c0001000000015e000003060000000600004c
:10093c00052800007c2800007c280000052400000d
:10094c002a7f00002a1000000362000018460000f5
:10095c00053000004c5a0000245000000106000035
:10096c00023c000042020000423c0000052800004e
:10097c00107c00001028000003100000381000004c
:10098c0001c0000003100000101000000140000026
:10099c000360000018060000043c00004242000006
:1009ac003c030000447e0000400400004462000050
:1009bc00524c0000034a00004a340000041e0000a0
:1009cc00107c0000100300004e4a000032040000ae
:1009dc003c4a00004a30000003620000120e000086
:1009ec00043400004a4a0000340400000c52000099
:1009fc00523c000001480000028000006803000027
:100a0c0010280000440300002828000028030000e0
:100a1c004428000010030000025200000c050000e6
:100a2c003c420000522a00003c0400007c120000f2
:100a3c00127c0000047e00004a4a000034040000ce
:100a4c003c42000042240000047e000042420000b0
:100a5c003c0300007e4a00004a0300007e0a0000ae
:100a6c000a0400003c42000052340000047e0000e6
:100a7c00080800007e030000427e000042030000d4
:100a8c00424200003e0400007e0800001462000098
:100a9c00037e000040400000057e000004080000ba
:100aac00047e0000057e000004180000207e00007b
:100abc00043c0000424200003c0400007e12000096
:100acc00120c0000043c000042420000bc04000078
:100adc007e120000126c0000044400004a4a000020
:100aec0030030000027e0000020400003e400000c3
:100afc00403e0000050600001860000018060000cb
:100b0c00053e0000403e0000403e00000542000053
:100b1c002418000024420000049e0000a0a0000045
:100b2c007e040000625200004a460000027e000073
:100b3c00420300000618000060020000427e000024
:100b4c0003200000102000000480000080800000c2
:100b5c00800200000408000004200000545400002f
:100b6c00780400007e440000443800000438000083
:100b7c00444400002804000038440000447e000077
:100b8c000438000054540000580200007c0a000095
:100b9c0004980000a4a400007c0400007e04000063
:100bac0004780000017a0000024000003a040000c2
:100bbc007e10000028440000017e0000057c00002f
:100bcc000478000004780000047c00000404000099
:100bdc0078040000384400004438000004fc000095
:100bec0024240000180400001824000024fc000039
:100bfc00027c000004040000485400005420000053
:100c0c00030400003e440000043c0000404000008f
:100c1c003c0500000c300000403000000c050000ca
:100c2c003c4000003c4000003c0500004428000013
:100c3c0010280000440400009ca00000a07c0000d0
:100c4c0003640000544c000003080000364100000f
:100c5c0001ff0000034100003608000004200000e2
:100c6c001020000010000000000100000203000032
:020000040000fa
:100c7c000000fa00881f7800054ea8002003200011
:100c8c000100200054080700054ea9002434ef0091
:100c9c001600370021a18000b042210000804000e6
:100cac00104078000080fb004013880028a18000d1
:100cbc00f4fe070080407800d04221000000440080
:100ccc0001487800000000002040800062006000b5
:100cdc000000e000fcff32000428a90040c2a9007b
:100cec0020a180000000e80020a1880020a1800045
:100cfc00e10f5000e7ff3600054ea800200320004e
:100d0c000100200034080700054ea9004f047800ac
:100d1c000080fa00000006000400fa00100798009a
:100d2c001e009000e30f50000c003e00a163280051
:100d3c001e00900000804000104078007f40600052
:100d4c000080fb007f0060004219800001fe2f0034
:100d5c008100610001007000401988002023a80068
:100d6c00a00f2000010020001b0807002023a90071
:100d7c000000eb00000f780000198000610060009b
:100d8c000000e0000300320010c0b30022f4b700f2
:100d9c0017003700400620009e007800808f50001e
:100dac00110036002003a900a070800000407800dc
:100dbc006140600000c0ea00614060000080fb0000
:100dcc0061006000a17080000100a10001007000b2
:100ddc00a070880000a180000000e80000a188003d
:100dec002274ef00020037001e0fe800e2ff37000c
:100dfc00001880000080fa00000006000000fa00d5
:100e0c009b010700014ea90000eea900074ea900a6
:100e1c0006eea900100ea900102ea900114ea90073
:100e2c00116ea9001d4ea8001d6ea800174ea9003a
:100e3c00176ea90010cea80010eea800110ea80085
:100e4c001ccea8001ceea8001d0ea8001acea900ee
:100e5c001aeea9001b0ea90004eea900054ea9006c
:100e6c00154ea800d1010700fc0107001102070074
:100e7c00f03f2000e00e8800de21ef00a2aa2e0039
:100e8c00f1802100000d2c0077fe070040ff2f00a1
:100e9c0063fe07000e2eef001e2eef002e2eef002d
:100eac0021e3a90021a3a90001198000f0cf2f0094
:100ebc0000806000001988000e0ea8000e2ea800fd
:100ecc001e0ea8001e2ea8001f0ea90011198000ce
:100edc00f0cf2f00008060000080a0001019880067
:100eec002043a900200020004019880021e3a8001d
:100efc006382a9006362a9006342a9006322a8006f
:100f0c006302a80062e2a90062c2a90062a2a80062
:100f1c006242a8006262a8006282a8006202a90074
:100f2c006222a90065e2a90065c2a90065a2a90018
:100f3c006422a90061e2a90061a2a900001380004b
:100f4c0000138000001380002d74ef002e74ef004e
:100f5c002f74ef002b74ef002c74ef002d74ef0046
:100f6c006822ef000428a90040c2a90061e2a80091
:100f7c000428a90040a7a8000060fe002428a900ae
:100f8c002408a9002034ef00010037000000000005
:100f9c0030d4bf00e14f5000fcff3a003074ef003a
:100fac000060fe00a07080000000d1006140600075
:100fbc0000c0ea00614060000080fb00610060003e
:100fcc0000004000a17080000110a1000100700021
:100fdc00a07088002ed4bf000080fb006100600070
:100fec00004078000004e0000400320028d4bf0068
:100ffc000004a00028f4b7000300370028d4bf0079
:10100c000004a10028f4b7002ed4bf000004e000b7
:10101c0004003d0028d4bf000074a00028f4b700e1
:10102c000300370028d4bf000074a10028f4b700d7
:10103c002dd4bf000080fb006100600000407800f0
:10104c000004e0000400320029d4bf000004a0001a
:10105c0029f4b7000300370029d4bf000004a10015
:10106c0029f4b7002dd4bf000080fb0062006000a3
:10107c000000e0000400320029d4bf000014a000de
:10108c0029f4b7000300370029d4bf000014a100d5
:10109c0029f4b7002dd4bf000080fb006400600071
:1010ac000000e0000400320029d4bf000024a0009e
:1010bc0029f4b7000300370029d4bf000024a10095
:1010cc0029f4b7002dd4bf000080fb00680060003d
:1010dc000000e0000400320029d4bf000034a0005e
:1010ec0029f4b7000300370029d4bf000034a10055
:1010fc0029f4b7002dd4bf000080fb007000600005
:10110c000000e0000400320029d4bf000044a0001d
:10111c0029f4b7000300370029d4bf000044a10014
:10112c0029f4b7002dd4bf008080fb000002200002
:10113c00008060000000e0000400320029d4bf00f1
:10114c000054a00029f4b7000300370029d4bf00d5
:10115c000054a10029f4b7002dd4bf008080fb00ff
:10116c0000042000008060000000e0000400320059
:10117c0029d4bf000064a00029f4b7000300370095
:10118c0029d4bf000064a10029f4b7002dd4bf00fe
:10119c000004e00004003d0029d4bf000074a0004e
:1011ac0029f4b7000300370029d4bf000074a10054
:1011bc0029f4b7002ad4bf000000fb00e10f500057
:1011cc005b003200e20f5000a40032000000e0008f
:1011dc00a5003a002ed4bf000080fb006200600026
:1011ec000000e0000900320028d4bf000014a00069
:1011fc0028f4b70028d4bf000024a10028f4b700bd
:10120c0028d4bf000034a10028f4b7002ed4bf00ae
:10121c000080fb00640060000000e0000900320068
:10122c0028d4bf000014a10028f4b70028d4bf00b4
:10123c000024a00028f4b70028d4bf000034a1007b
:10124c0028f4b7002ed4bf000080fb0068006000bb
:10125c000000e0000900320028d4bf000014a100f7
:10126c0028f4b70028d4bf000024a10028f4b7004c
:10127c0028d4bf000034a00028f4b7002ed4bf003f
:10128c000080fb00700060000000e00009003200ec
:10129c0028d4bf000044a00028f4b70028d4bf0015
:1012ac000054a10028f4b70028d4bf000064a100aa
:1012bc0028f4b7002ed4bf008080fb000002200071
:1012cc00008060000000e0000900320028d4bf005c
:1012dc000044a10028f4b70028d4bf000054a0009b
:1012ec0028f4b70028d4bf000064a10028f4b7008c
:1012fc002ed4bf008080fb00000420000080600022
:10130c000000e0005700320028d4bf000044a100c8
:10131c0028f4b70028d4bf000054a10028f4b7006b
:10132c0028d4bf000064a00028f4b7004e0037009a
:10133c002ed4bf000080fb00620060000000e000c3
:10134c000400320028d4bf000014a00028f4b70019
:10135c000300370028d4bf000014a10028f4b70004
:10136c002ed4bf000080fb00640060000000e00091
:10137c000400320028d4bf000024a00028f4b700d9
:10138c000300370028d4bf000024a10028f4b700c4
:10139c002ed4bf000080fb00680060000000e0005d
:1013ac000400320028d4bf000034a00028f4b70099
:1013bc000300370028d4bf000034a10028f4b70084
:1013cc002ed4bf000080fb00700060000000e00025
:1013dc000400320028d4bf000044a00028f4b70059
:1013ec000300370028d4bf000044a10028f4b70044
:1013fc002ed4bf008080fb00000220000080600023
:10140c000000e0000400320028d4bf000054a0000b
:10141c0028f4b7000300370028d4bf000054a10003
:10142c0028f4b7002ed4bf008080fb0000042000fd
:10143c00008060000000e0000400320028d4bf00ef
:10144c000064a00028f4b7000700370028d4bf00c0
:10145c000064a10028f4b70003003700000000006e
:10146c0001003700000000000060fe00c8fe3700dd
:10147c000000fa00213a8000f08f2f0000806000fd
:10148c00203a8800213a8000f0ff2800008060009c
:10149c00203a880060022000303a8800213a80000f
:1014ac0000fe2f0000806000203a8800213a800066
:1014bc00f0f32f0000806000203a8800113a800081
:1014cc00f00b2000008160006004200071052000fa
:1014dc002374200080497800814978008249780083
:1014ec002136800000f82f008080600080032000ef
:1014fc00010070002036880061348000f00f2c0051
:10150c00008060000080a00060348800613680009c
:10151c0000f82f0080806000700320000100700034
:10152c00603688005134800000fc2f000080600081
:10153c000030a0005034880031348000f00f2c00b3
:10154c008080600000902000010070003034880022
:10155c00e135800000f82f0080806000e002200060
:10156c0001007000e0358800e1358000f00f2800a4
:10157c008080600000f0220001007000e0358800df
:10158c00103a8000000178000260a0006004200086
:10159c00710520002374200080497800814978006f
:1015ac00824978000080fa00000006000000fa0072
:1015bc0021a2a90020c2a9000111800090ff2f00d8
:1015cc0000806000001188002002a9002062a800a1
:1015dc00400020004011880011118000f0f32f0012
:1015ec00008060001011880022e2a9000168a900a7
:1015fc002168a80021e2a8002342a8000080fa007c
:10160c00000006000000fa0031a2a90030c2a900b7
:10161c008111800090ff2f000080600080118800f5
:10162c003002a9003062a80040002000c0118800e0
:10163c0091118000f0f32f00008060009011880061
:10164c0032e2a90003c8a90023c8a80031e2a8000f
:10165c003342a8000080fa00000006000000fa00e7
:10166c00a00f20001008880021088000f0fc2f003b
:10167c0000806000200888000421a9002068a800d0
:10168c000068a9000080fa00000006000400fa00bf
:10169c00b0072000000f780000222c0010079800e3
:1016ac009e0078001e00900056fc07000080fa0097
:1016bc00000006000400fa00e000200001002000f9
:1016cc00e0b78800f1b78800c06f210040bf8800e8
:1016dc00e00020000100200000b8880011b888004c
:1016ec000070210080c08800200320000100200031
:1016fc0020b8880031b8880040702100c0c1880033
:10170c00100020000100200060b8880071b888002b
:10171c00c070210000c38800900020000100200050
:10172c0040b8880051b888008070210040c48800ff
:10173c00200020000100200080b8880091b88800ab
:10174c000071210080c588000000eb00000f7800bc
:10175c001d0037009e0078006380400000004000b0
:10176c00000178009e007800800220008088b9007b
:10177c00800078004071210000804000804078009b
:10178c00306b210000004100014878001e007800f9
:10179c0000004000670140009e007800800220009d
:1017ac008088b900800078004071210000804000e2
:1017bc004880de0080407800306b21000000410042
:1017cc00014878001e0fe8001e007800ea0f500058
:1017dc00e0ff3400c08c210000407800b3f6b70065
:1017ec00c08c21004880de0000407800b4f6b700c1
:1017fc00808d210000407800b5f6b700808d210067
:10180c004880de0000407800b6f6b700408e21001c
:10181c0000407800b7f6b700408e21004880de000b
:10182c0000407800b8f6b700306b2100004078001b
:10183c00f9f6b700306b21004880de0000407800dc
:10184c00f8f6b7000000eb00100798001f003700f7
:10185c001e00900063004000000040000001780072
:10186c009e009000800220008088b90080007800e3
:10187c0040712100008040008040780030672100da
:10188c0000004100014878001e009000000040005c
:10189c00670140009e009000800220008088b90003
:1018ac008000780040712100008040004880de00fc
:1018bc00804078003067210000004100014878002a
:1018cc001e0090000000e800100798001e00900019
:1018dc00e40f5000deff3400c08c21000040780083
:1018ec0073f6b700c08c21004880de000040780001
:1018fc0074f6b700808d21000040780075f6b700b3
:10190c00808d21004880de000040780076f6b7001c
:10191c00408e21000040780077f6b700408e210001
:10192c004880de000040780078f6b7003067210070
:10193c0000407800fbf6b700306721004880de00dd
:10194c0000407800faf6b7000080fa0000000600ac
:10195c000600fa00881f780040479800514798000d
:10196c005e4090000004e0001b0032004e409000ee
:10197c000084fb00ce40900010432100f9040700c6
:10198c001143210081004400804878000000eb00e6
:10199c00000f78000a003700104321001e004000a1
:1019ac00104078000080fb00d5fb07000000000011
:1019bc00bffb07000004e000fdff3a001e0fe8002b
:1019cc004e4090000080fb000000e8009e0f50008d
:1019dc00f1ff3c00150037000000eb0010079800e9
:1019ec000d0037009e009000104321000080400045
:1019fc00104078000080fb00c1fb070000000000d5
:101a0c00abfb07000004e000fdff3a001e00900055
:101a1c000000e800100798004e4090008080fb000a
:101a2c001e009000808f5000eeff3c004f047800a9
:101a3c000080fa00000006000200fa00881f7800ff
:101a4c000040eb00004f78000c0037009e81fb003b
:101a5c0032d6bf000081fb001153210081004100f0
:101a6c001141780031632100818041008248780067
:101a7c001e4fe8000040e80032f6b7001163210069
:101a8c009140780032d6bf0080cf5000efff3a0073
:101a9c001e80fb008000e9003063210000804000c4
:101aac00104478001e40e90080407800306321002b
:101abc00ac040700804f5400a4013a0033d6bf0099
:101acc000080fb006101b900b0fb2f00f1ff2f007b
:101adc000200400083804800920b2000030020008d
:101aec00820f5000838f580098013e0000060100c1
:101afc002f01370042013700940137009301370062
:101b0c009201370091013700900137000401370032
:101b1c008e0137008d0137008c0137008b013700a7
:101b2c008a013700890137008801370087013700a7
:101b3c0086013700850137008401370083013700a7
:101b4c008201370081013700800137007f013700a7
:101b5c007e0137007d0137007c0137007b013700a7
:101b6c007a013700790137007801370077013700a7
:101b7c0076013700750137007401370073013700a7
:101b8c007201370071013700700137006f013700a7
:101b9c006e0137006d0137006c0137006b013700a7
:101bac006a013700690137006801370067013700a7
:101bbc0066013700650137006401370063013700a7
:101bcc006201370061013700600137005f013700a7
:101bdc005e0137005d0137005c0137005b013700a7
:101bec005a013700590137005801370057013700a7
:101bfc0056013700550137005401370053013700a7
:101c0c005201370051013700500137004f013700a6
:101c1c004e0137004d0137004c0137004b013700a6
:101c2c004a013700490137004801370047013700a6
:101c3c0046013700450137004401370043013700a6
:101c4c004201370041013700400137003f013700a6
:101c5c003e0137003d0137003c0137003b013700a6
:101c6c003a013700390137003801370037013700a6
:101c7c0036013700350137003401370033013700a6
:101c8c003201370031013700300137002f013700a6
:101c9c002e0137002d0137002c0137002b013700a6
:101cac002a013700290137002801370027013700a6
:101cbc0026013700250137002401370023013700a6
:101ccc00220137002101370085003700570037000b
:101cdc00ed0037001d0137001c0137001b013700d8
:101cec004d00370019013700180137001701370074
:101cfc0016013700150137009e003700130137001d
:101d0c001201370011013700100137000f013700a5
:101d1c000e0137000d0137000c0137004d00370064
:101d2c0052003700570037005c00370007013700be
:101d3c000601370005013700930037000301370017
:101d4c00020137000101370000013700ff003700a6
:101d5c00fe003700fd0037001f003700fb00370086
:101d6c0028003700f9003700f8003700f70037007b
:101d7c00f60037004f00370079003700f3003700ca
:101d8c00f2003700f10037001900370083003700ec
:101d9c00ee003700ed003700ec003700eb003700a9
:101dac00ea003700e9003700e8003700e7003700a9
:101dbc00e6003700e5003700e4003700e3003700a9
:101dcc00e2003700e1003700e0003700df003700a9
:101ddc00de003700a6003700a0c5b30031f4b70011
:101dec0011c0b30010c0b300d9fe0700d7003700f4
:101dfc003174ef008040eb0010c0b300d4fe07003c
:101e0c00d20037003174ef008040eb0010c0b300fb
:101e1c00cffe0700cd0037003174ef0011c0b300c6
:101e2c0010c0b300cafe0700c800370060c9b30079
:101e3c0031f4b7003274ef003374ef0030c1b300eb
:101e4c0034f4b70011c0b30040c0b300c0fe0700ab
:101e5c00be00370040c5b30031f4b70011c0b30069
:101e6c0010c0b300bafe0700b800370030c7b3008b
:101e7c0031f4b70011c0b30010c0b300b4fe0700ba
:101e8c00b200370080c4b30031f4b70011c0b30006
:101e9c0010c0b300aefe0700ac00370070c5b30035
:101eac0031f4b70011c0b30010c0b300a8fe070096
:101ebc00a600370034d6bf002af4b7003174ef0007
:101ecc008040eb0010c0b300a1fe07002ad4bf0075
:101edc00e14f50009c0034002a74ef009b00370047
:101eec0070c0b30031f4b70070c0b30032f4b70067
:101efc00fbd6bf0033f4b700fad6bf0034f4b700fa
:101f0c00f9d6bf0035f4b700f8d6bf0036f4b700e9
:101f1c0011c0b30060c0b3008dfe07008b0037000a
:101f2c0035d6bf000080fb00c800dd0034d6bf00f2
:101f3c000080fb0001007000b0b78800b0b78000d3
:101f4c00a0b78800a0b780001040780031f4b7002b
:101f5c0011c0b30010c0b3007dfe07007b0037003a
:101f6c003174ef008040eb0010c0b30078fe070026
:101f7c00760037003174ef0011c0b30010c0b3000d
:101f8c0073fe0700710037003174ef0011c0b3000d
:101f9c0010c0b3006efe07006c0037003174ef0008
:101fac008040eb0010c0b30069fe070067003700eb
:101fbc0035d6bf000080fb00c800dd0034d6bf0062
:101fcc000080fb0001007000b0b78800b0b7800043
:101fdc00a0b78800a0b780001040780031f4b7009b
:101fec00a0b780000000e8001040780032f4b70081
:101ffc0011c0b30020c0b30055fe070053003700da
:10200c0035d6bf000080fb00c800dd0034d6bf0011
:10201c000080fb0001007000b0b78800b0b78000f2
:10202c00a0b78800a0b780001040780031f4b7004a
:10203c00a0b780000000e8001040780032f4b70030
:10204c00a0b780000000e8001040780033f4b7001f
:10205c00a0b780000000e8001040780034f4b7000e
:10206c0011c0b30040c0b30039fe07003700370081
:10207c00a0c5b30031f4b70011c0b30010c0b30059
:10208c0033fe07003100370034d6bf002cf4b70004
:10209c0035d6bf002bf4b7003174ef0028d4bf0045
:1020ac0032f4b70029d4bf0033f4b700f2f90700bb
:1020bc004e09dd004200de0000007100c208de00a7
:1020cc000040780034f4b7000000eb0012fb07006e
:1020dc004200de00d0a0880022d4bf000004e00043
:1020ec0002003200d0a08000e0a088001000200088
:1020fc0009fb07004200de00d0a0880022d4bf00fc
:10210c000004e00002003200d0a08000f0a08800a3
:10211c00e0a080000040780035f4b700f0a080000b
:10212c000040780036f4b700d1fa070011c0b300b4
:10213c0070c0b30006fe070010c0b30030f4b70047
:10214c000000000001003700000000004f04780080
:10215c000080fa00000006000400fa001007980046
:10216c000000eb00000f78000000eb00000f78007f
:10217c00070037001e0090001e00400090407800c1
:10218c00000021001e004000014878001e0fe800ee
:10219c00f03f20009e007800808f5000f5ff360045
:1021ac000080fa00000006000000fa00e0cab3004c
:1021bc003200070050cdb3003000070000c8b30058
:1021cc002e00070080cab3002c000700f0c3b30038
:1021dc002a00070030cdb300280007000040eb00b8
:1021ec002600070000c4b30024000700d0c8b300c9
:1021fc002200070040c1b3002000070000c2b3005a
:10220c001e0007000040eb001c00070010cab300c2
:10221c001a00070080ccb30018000700a0cdb30053
:10222c001600070020c1b3001400070010c8b3004b
:10223c0012000700f0ccb3001000070090cdb300e3
:10224c000e00070010cfb3000c000700b0cdb30098
:10225c000a00070000c4b3000800070040cab3001e
:10226c000600070060cab30004000700f0cab30000
:10227c00020007000080fa00000006000200fa00cd
:10228c00004f780044f9070061f9070000000000d6
:10229c0030108000610060000000e000fcff3a009c
:1022ac0080c7b30049f9070000000000401080000f
:1022bc00610060000000e000fcff3a00000000003c
:1022cc004110800000002800008060000000e00049
:1022dc00fbff3a000040eb003cf907000000000057
:1022ec0040108000610060000000e000fcff3a003c
:1022fc0000000000411080000000280000806000f9
:10230c000000e000fbff3a001e4078002ff90700a8
:10231c0041f907000080fa00000006000200fa00f4
:10232c00004f78001e4078000004e00003003200eb
:10233c0070cab300d1ff07000200370060cab300b7
:10234c00ceff07000080fa00000006000400fa002f
:10235c001007980010c2b300c8ff07000040eb0044
:10236c00c6ff0700f0c7b300c4ff070020c2b300cc
:10237c00c2ff07000040eb00c0ff070070c0b300b5
:10238c00beff07000040eb00004f78001f00370035
:10239c0001f907001ef90700000000003010800052
:1023ac00610060000000e000fcff3a0080c7b30051
:1023bc0006f9070000c4b30004f907000040eb0065
:1023cc00104798000c0037001e80fb00c400dd0095
:1023dc001e4090000080fb00008040009e0090009a
:1023ec000080400010407800f8f807001e40900074
:1023fc000040e800104798001e409000ef4f50003e
:10240c00f1ff360004f907001e4fe800f0c3b300db
:10241c009e40780080cf5000ddff36000080fa002f
:10242c00000006000400fa00004f780011479800e5
:10243c00224798001e4078000004e0004000350060
:10244c009e409000f0c3b30080cf50003e003e0091
:10245c002e4090000004e0001c0032001e81fb00a6
:10246c001e4090000080fb004300de00004078001e
:10247c008080fb00c708dd00010141009e80fb004d
:10248c000080fb004700dd00808040000000210040
:10249c000080400010407800804078001e40900082
:1024ac000080fb0067006000130020000018dd00b6
:1024bc000040780000c070008040780000002100cf
:1024cc000000410001487800200037001e81fb000d
:1024dc001e4090000080fb004300de0000407800ae
:1024ec008080fb00c708dd00010141009e80fb00dd
:1024fc000080fb004700dd008080400000002100d0
:10250c000080400010407800804078001e40900011
:10251c000080fb0067006000130020000018dd0045
:10252c000040780000c0ea0000c0600080407800e5
:10253c000000210000004100014878000300370032
:10254c000000000001003700000000000080fa00cd
:10255c00000006000600fa0020479800314798005a
:10256c00424798000040eb00004f7800070037000e
:10257c003e4090001e40400012c0b30080407800e6
:10258c002e409000a7ff07001e4fe8004e40900021
:10259c009e40780080cf5000f5ff39000080fa0093
:1025ac00000006000600fa0020479800314798000a
:1025bc00424798000040eb00004f780006003700bf
:1025cc002e4090001e40400012c0b300be40900050
:1025dc0094ff07001e4fe8004e4090009e4078008c
:1025ec0080cf5000f6ff39000080fa000000060092
:1025fc000c00fa006047980071479800024f980051
:10260c00134f9800244f98008e4890006e40900015
:10261c0000c050000040e800404798009e489000e1
:10262c007e40900000c05000504798002e4890000b
:10263c000004e00011003a004e419000fe40900072
:10264c006e409000d7ff07004e4190009e489000ce
:10265c006e409000d3ff07005e419000fe4090005a
:10266c006e409000bbff07005e419000fe40900062
:10267c000e489000b7ff07001d0037000000eb006c
:10268c00000f7800160037000000eb0010079800d0
:10269c000d0037001e009000804078007e409000b6
:1026ac0080c040001e007800004178006e40900011
:1026bc000040410012c0b3005aff07001e009000fa
:1026cc000000e800100798005e4090008080fb003e
:1026dc001e009000808f5000eeff3d001e0fe800a2
:1026ec004e4090000080fb009e0f5000e6ff3c0027
:1026fc000080fa00000006000a00fa00604798000b
:10270c0071479800024f9800134f98008e48900024
:10271c006e40900000c050000040e8004047980018
:10272c009e4890007e40900000c05000504798009a
:10273c000000eb00000f7800160037000000eb00e3
:10274c00100798000d0037001e00900080407800a4
:10275c007e40900080c040001e0078000041780050
:10276c006e409000004041000041eb002dff07003f
:10277c001e0090000000e800100798005e409000da
:10278c008080fb001e009000808f5000eeff3d000b
:10279c001e0fe8004e4090000080fb009e0f500082
:1027ac00e6ff3c000080fa00000006000200fa0080
:1027bc000000eb00000f780005003700000021003e
:1027cc001e0040008040eb00014878001e0fe8001e
:1027dc00f03f20009e007800808f5000f7ff3600fd
:1027ec000080fa00000006000200fa00004f78009a
:1027fc001e407800c9fe07000080fa0000000600a9
:10280c000000fa0000002100d0fe07000080fa0052
:10281c00000006000a00fa00200798003107980013
:10282c00420798003e009000c700dd002e0090008b
:10283c0000804000100798000040eb00004f78002b
:10284c000e0037009e80fb001e00900000814000af
:10285c009e80fb004e009000008040000000e800cd
:10286c006149280000804000904078000000210061
:10287c0000004100014878001e4fe8006149280023
:10288c004e00900000804000104078009e4f500099
:10289c00ecff3e000080fa00000006000a00fa007f
:1028ac002007980031079800420798002500370050
:1028bc000000eb00000f78000000eb001007980000
:1028cc0009003700604928001e00400010407800c5
:1028dc000080fb001e004000000fe8001e0090006e
:1028ec000000e800100798004e009000104078009f
:1028fc000000fb000002b100800078001e00900078
:10290c00808f5000efff3e001e017800be0090004b
:10291c002e009000bfff0700604928001e004000f9
:10292c00104078008080fb002e009000008040005a
:10293c000000e800200798004e0090000000e8001e
:10294c00400798004e009000104078000004e00012
:0c295c00d7ff3a000080fa0000000600df
:020000040000fa
:10296800f01800000001000082000000005ebc00ba
:10297800e2613f00dd83c2009c7e2000a3fd1f00b2
:10298800419dc300217ffc00a2401e005f01e300bf
:10299800bd3e600082dc23007d9fc100421cfe001a
:1029a800a0e1bf005d038000de3c6200bee00200e3
:1029b8005cdf8100633d7c0022c09e001d43a100b6
:1029c800ff461800faa42700799bc50084da38006e
:1029d80066e5bb005907db0085673900bae40600e5
:1029e80058194700a5fb780026c49a00653bd90012
:1029f80087045a00b8e6a700f91b4500c6987a0074
:102a080024f8a600441a9900c7257b003a6486007a
:102a1800d85b0500e7b98c00d2306e00edb35100e9
:102a28000f4e1000f2ac2f007193cd00114fad0086
:102a3800f3702e00cc92d3008d6f3100b2ec0e00f3
:102a480050aff100134dce0090722c006d33d100c1
:102a58008f0c5200b0ee32006c8ed000530def0098
:102a6800b1f0ae004c129100cf2d7300ca947600dd
:102a780028abf5001749080056b4ea006937d500b5
:102a88008b570900ebb53600688ad40095cb29002e
:102a980077f4aa004816e900b7550b0088d6340029
:102aa8006a2b750097c94a0014f6a800742ac80052
:102ab80096154b00a9f7b600e80a5400d7896b00b1
:102ac800350000000014000014030000800000001e
:102ad80014170000dc01000082000000a0100100b3
:102ae80080000000000000000000000000006200fc
:102af800697400004f555400505554000000000000
:102b080000000000000000000000000000000000bd
:102b180000a01000010000000000000000000000fc
:102b2800000000006269740000494e0050555400ce
:102b3800000000000000000000000000000000008d
:102b4800000000000000a0000808000000000000cd
:102b5800000000000000000000636f00756e740044
:102b680000656e00636f640065722d003000000020
:102b7800000000000000000000000000a00806009f
:102b880000000000000000000000000000007600c7
:102b9800616c7500650070006f7469005f3100003a
:102ba800000000000000000000000000000000001d
:102bb80000a008000600000000000000000000005f
:102bc8000000000076616c0075650000706f74008d
:102bd800695f3200000000000000000000000000f3
:102be800000000000000a0001002800000000000ab
:102bf8000000000000000000004e6f006e6500003d
:102c0800537752006576690073696f006e000000a3
:102c1800000000000000000000000000a0100200fa
:102c280080000000000000000000000000004e00ce
:102c38006f6e650000487700526576006973690019
:102c48006f6e00000000000000000000000000009f
:102c580000a01000040000000000000000000000b8
:102c6800000000004e6f6e0065004e005657610070
:102c780074636800446f670054696d00656f750080
:102c8800740000000000a000200400000000000004
:102c98000000000000000000004e6f006e6500009c
:102ca8004e5655006e6974004e756d00626572006f
:102cb800000000000000000000000000a010040058
:102cc80040000000000000000000000000004e006e
:102cd8006f6e6500004e56004261750064526100d7
:102ce8007465000000000000000000000000000003
:102cf80000a0200004000000000000000000000008
:102d0800000000004e6f6e00650055006e6974008b
:102d18004e756d0062657200000000000000000042
:102d2800000000000000b0000000000068773000dc
:102d3800200000000000b00001010000737730009f
:102d4800200000000000b00002010000737731008d
:102d58002000000000000000001000000004000037
:082d68008000000000000000e3
:020000040000fa
:102d70000600fa0010079800414798000040eb0059
:102d8000004f78000a0037001e00900010407800c5
:102d90001e4068008080fb00008f21000080400002
:102da000104f78001e0090000000e8001007980007
:102db0004e4090000080fb000000ea004f00de0063
:102dc00000407800ce4090008140e90041479800e3
:102dd0000004e000ecff3a001e4078000080fa009a
:042de00000000600e9
:020000040000fa
:102de400f03fb1000180b10006003500ee03090098
:102df40000000000403fb1000180b100fbff3d0036
:102e04001000b000203fb00002003500008009002f
:082e14000000000000000600b0
:020000040000fa
:04afe000cfff00009f
:020000040000fa
:04afe400ffff00006b
:020000040000fa
:04afe80077ff0000ef
:020000040000fa
:04afec00bdff0000a5
:020000040000fa
:04aff0007bff0000e3
:020000040000fa
:04aff400ffff00005b
:00000001FF
